{
  "contractName": "XDCValidator",
  "abi": [
    {
      "constant": true,
      "inputs": [
        {
          "name": "",
          "type": "uint256"
        }
      ],
      "name": "owners",
      "outputs": [
        {
          "name": "",
          "type": "address"
        }
      ],
      "payable": false,
      "stateMutability": "view",
      "type": "function"
    },
    {
      "constant": true,
      "inputs": [],
      "name": "ownerCount",
      "outputs": [
        {
          "name": "",
          "type": "uint256"
        }
      ],
      "payable": false,
      "stateMutability": "view",
      "type": "function"
    },
    {
      "constant": true,
      "inputs": [
        {
          "name": "",
          "type": "address"
        },
        {
          "name": "",
          "type": "address"
        }
      ],
      "name": "hasVotedInvalid",
      "outputs": [
        {
          "name": "",
          "type": "bool"
        }
      ],
      "payable": false,
      "stateMutability": "view",
      "type": "function"
    },
    {
      "constant": true,
      "inputs": [
        {
          "name": "",
          "type": "address"
        },
        {
          "name": "",
          "type": "uint256"
        }
      ],
      "name": "ownerToCandidate",
      "outputs": [
        {
          "name": "",
          "type": "address"
        }
      ],
      "payable": false,
      "stateMutability": "view",
      "type": "function"
    },
    {
      "constant": true,
      "inputs": [
        {
          "name": "",
          "type": "uint256"
        }
      ],
      "name": "candidates",
      "outputs": [
        {
          "name": "",
          "type": "address"
        }
      ],
      "payable": false,
      "stateMutability": "view",
      "type": "function"
    },
    {
      "constant": true,
      "inputs": [
        {
          "name": "",
          "type": "address"
        },
        {
          "name": "",
          "type": "uint256"
        }
      ],
      "name": "KYCString",
      "outputs": [
        {
          "name": "",
          "type": "string"
        }
      ],
      "payable": false,
      "stateMutability": "view",
      "type": "function"
    },
    {
      "constant": true,
      "inputs": [
        {
          "name": "",
          "type": "address"
        }
      ],
      "name": "invalidKYCCount",
      "outputs": [
        {
          "name": "",
          "type": "uint256"
        }
      ],
      "payable": false,
      "stateMutability": "view",
      "type": "function"
    },
    {
      "constant": true,
      "inputs": [],
      "name": "candidateCount",
      "outputs": [
        {
          "name": "",
          "type": "uint256"
        }
      ],
      "payable": false,
      "stateMutability": "view",
      "type": "function"
    },
    {
      "constant": true,
      "inputs": [],
      "name": "voterWithdrawDelay",
      "outputs": [
        {
          "name": "",
          "type": "uint256"
        }
      ],
      "payable": false,
      "stateMutability": "view",
      "type": "function"
    },
    {
      "constant": true,
      "inputs": [],
      "name": "maxValidatorNumber",
      "outputs": [
        {
          "name": "",
          "type": "uint256"
        }
      ],
      "payable": false,
      "stateMutability": "view",
      "type": "function"
    },
    {
      "constant": true,
      "inputs": [],
      "name": "candidateWithdrawDelay",
      "outputs": [
        {
          "name": "",
          "type": "uint256"
        }
      ],
      "payable": false,
      "stateMutability": "view",
      "type": "function"
    },
    {
      "constant": true,
      "inputs": [],
      "name": "minCandidateCap",
      "outputs": [
        {
          "name": "",
          "type": "uint256"
        }
      ],
      "payable": false,
      "stateMutability": "view",
      "type": "function"
    },
    {
      "constant": true,
      "inputs": [],
      "name": "minVoterCap",
      "outputs": [
        {
          "name": "",
          "type": "uint256"
        }
      ],
      "payable": false,
      "stateMutability": "view",
      "type": "function"
    },
    {
      "inputs": [
        {
          "name": "_candidates",
          "type": "address[]"
        },
        {
          "name": "_caps",
          "type": "uint256[]"
        },
        {
          "name": "_firstOwner",
          "type": "address"
        },
        {
          "name": "_minCandidateCap",
          "type": "uint256"
        },
        {
          "name": "_minVoterCap",
          "type": "uint256"
        },
        {
          "name": "_maxValidatorNumber",
          "type": "uint256"
        },
        {
          "name": "_candidateWithdrawDelay",
          "type": "uint256"
        },
        {
          "name": "_voterWithdrawDelay",
          "type": "uint256"
        }
      ],
      "payable": false,
      "stateMutability": "nonpayable",
      "type": "constructor"
    },
    {
      "anonymous": false,
      "inputs": [
        {
          "indexed": false,
          "name": "_voter",
          "type": "address"
        },
        {
          "indexed": false,
          "name": "_candidate",
          "type": "address"
        },
        {
          "indexed": false,
          "name": "_cap",
          "type": "uint256"
        }
      ],
      "name": "Vote",
      "type": "event"
    },
    {
      "anonymous": false,
      "inputs": [
        {
          "indexed": false,
          "name": "_voter",
          "type": "address"
        },
        {
          "indexed": false,
          "name": "_candidate",
          "type": "address"
        },
        {
          "indexed": false,
          "name": "_cap",
          "type": "uint256"
        }
      ],
      "name": "Unvote",
      "type": "event"
    },
    {
      "anonymous": false,
      "inputs": [
        {
          "indexed": false,
          "name": "_owner",
          "type": "address"
        },
        {
          "indexed": false,
          "name": "_candidate",
          "type": "address"
        },
        {
          "indexed": false,
          "name": "_cap",
          "type": "uint256"
        }
      ],
      "name": "Propose",
      "type": "event"
    },
    {
      "anonymous": false,
      "inputs": [
        {
          "indexed": false,
          "name": "_owner",
          "type": "address"
        },
        {
          "indexed": false,
          "name": "_candidate",
          "type": "address"
        }
      ],
      "name": "Resign",
      "type": "event"
    },
    {
      "anonymous": false,
      "inputs": [
        {
          "indexed": false,
          "name": "_owner",
          "type": "address"
        },
        {
          "indexed": false,
          "name": "_blockNumber",
          "type": "uint256"
        },
        {
          "indexed": false,
          "name": "_cap",
          "type": "uint256"
        }
      ],
      "name": "Withdraw",
      "type": "event"
    },
    {
      "anonymous": false,
      "inputs": [
        {
          "indexed": false,
          "name": "_owner",
          "type": "address"
        },
        {
          "indexed": false,
          "name": "kycHash",
          "type": "string"
        }
      ],
      "name": "UploadedKYC",
      "type": "event"
    },
    {
      "anonymous": false,
      "inputs": [
        {
          "indexed": false,
          "name": "_masternodeOwner",
          "type": "address"
        },
        {
          "indexed": false,
          "name": "_masternodes",
          "type": "address[]"
        }
      ],
      "name": "InvalidatedNode",
      "type": "event"
    },
    {
      "constant": false,
      "inputs": [
        {
          "name": "kychash",
          "type": "string"
        }
      ],
      "name": "uploadKYC",
      "outputs": [],
      "payable": false,
      "stateMutability": "nonpayable",
      "type": "function"
    },
    {
      "constant": false,
      "inputs": [
        {
          "name": "_candidate",
          "type": "address"
        }
      ],
      "name": "propose",
      "outputs": [],
      "payable": true,
      "stateMutability": "payable",
      "type": "function"
    },
    {
      "constant": false,
      "inputs": [
        {
          "name": "_candidate",
          "type": "address"
        }
      ],
      "name": "vote",
      "outputs": [],
      "payable": true,
      "stateMutability": "payable",
      "type": "function"
    },
    {
      "constant": true,
      "inputs": [],
      "name": "getCandidates",
      "outputs": [
        {
          "name": "",
          "type": "address[]"
        }
      ],
      "payable": false,
      "stateMutability": "view",
      "type": "function"
    },
    {
      "constant": true,
      "inputs": [
        {
          "name": "_candidate",
          "type": "address"
        }
      ],
      "name": "getCandidateCap",
      "outputs": [
        {
          "name": "",
          "type": "uint256"
        }
      ],
      "payable": false,
      "stateMutability": "view",
      "type": "function"
    },
    {
      "constant": true,
      "inputs": [
        {
          "name": "_candidate",
          "type": "address"
        }
      ],
      "name": "getCandidateOwner",
      "outputs": [
        {
          "name": "",
          "type": "address"
        }
      ],
      "payable": false,
      "stateMutability": "view",
      "type": "function"
    },
    {
      "constant": true,
      "inputs": [
        {
          "name": "_candidate",
          "type": "address"
        },
        {
          "name": "_voter",
          "type": "address"
        }
      ],
      "name": "getVoterCap",
      "outputs": [
        {
          "name": "",
          "type": "uint256"
        }
      ],
      "payable": false,
      "stateMutability": "view",
      "type": "function"
    },
    {
      "constant": true,
      "inputs": [
        {
          "name": "_candidate",
          "type": "address"
        }
      ],
      "name": "getVoters",
      "outputs": [
        {
          "name": "",
          "type": "address[]"
        }
      ],
      "payable": false,
      "stateMutability": "view",
      "type": "function"
    },
    {
      "constant": true,
      "inputs": [
        {
          "name": "_candidate",
          "type": "address"
        }
      ],
      "name": "isCandidate",
      "outputs": [
        {
          "name": "",
          "type": "bool"
        }
      ],
      "payable": false,
      "stateMutability": "view",
      "type": "function"
    },
    {
      "constant": true,
      "inputs": [],
      "name": "getWithdrawBlockNumbers",
      "outputs": [
        {
          "name": "",
          "type": "uint256[]"
        }
      ],
      "payable": false,
      "stateMutability": "view",
      "type": "function"
    },
    {
      "constant": true,
      "inputs": [
        {
          "name": "_blockNumber",
          "type": "uint256"
        }
      ],
      "name": "getWithdrawCap",
      "outputs": [
        {
          "name": "",
          "type": "uint256"
        }
      ],
      "payable": false,
      "stateMutability": "view",
      "type": "function"
    },
    {
      "constant": false,
      "inputs": [
        {
          "name": "_candidate",
          "type": "address"
        },
        {
          "name": "_cap",
          "type": "uint256"
        }
      ],
      "name": "unvote",
      "outputs": [],
      "payable": false,
      "stateMutability": "nonpayable",
      "type": "function"
    },
    {
      "constant": false,
      "inputs": [
        {
          "name": "_candidate",
          "type": "address"
        }
      ],
      "name": "resign",
      "outputs": [],
      "payable": false,
      "stateMutability": "nonpayable",
      "type": "function"
    },
    {
      "constant": false,
      "inputs": [
        {
          "name": "_invalidCandidate",
          "type": "address"
        }
      ],
      "name": "voteInvalidKYC",
      "outputs": [],
      "payable": false,
      "stateMutability": "nonpayable",
      "type": "function"
    },
    {
      "constant": true,
      "inputs": [
        {
          "name": "_invalidCandidate",
          "type": "address"
        }
      ],
      "name": "invalidPercent",
      "outputs": [
        {
          "name": "",
          "type": "uint256"
        }
      ],
      "payable": false,
      "stateMutability": "view",
      "type": "function"
    },
    {
      "constant": true,
      "inputs": [],
      "name": "getOwnerCount",
      "outputs": [
        {
          "name": "",
          "type": "uint256"
        }
      ],
      "payable": false,
      "stateMutability": "view",
      "type": "function"
    },
    {
      "constant": true,
      "inputs": [
        {
          "name": "_address",
          "type": "address"
        }
      ],
      "name": "getLatestKYC",
      "outputs": [
        {
          "name": "",
          "type": "string"
        }
      ],
      "payable": false,
      "stateMutability": "view",
      "type": "function"
    },
    {
      "constant": true,
      "inputs": [
        {
          "name": "_address",
          "type": "address"
        }
      ],
      "name": "getHashCount",
      "outputs": [
        {
          "name": "",
          "type": "uint256"
        }
      ],
      "payable": false,
      "stateMutability": "view",
      "type": "function"
    },
    {
      "constant": false,
      "inputs": [
        {
          "name": "_blockNumber",
          "type": "uint256"
        },
        {
          "name": "_index",
          "type": "uint256"
        }
      ],
      "name": "withdraw",
      "outputs": [],
      "payable": false,
      "stateMutability": "nonpayable",
      "type": "function"
    }
  ],
  "bytecode": "0x606060405260006009556000600a5534156200001a57600080fd5b60405162003dcc38038062003dcc83398101604052808051820191906020018051820191906020018051906020019091908051906020019091908051906020019091908051906020019091908051906020019091908051906020019091905050600085600b8190555084600c8190555083600d8190555082600e8190555081600f81905550885160098190555060078054806001018281620000bd9190620004f1565b9160005260206000209001600089909190916101000a81548173ffffffffffffffffffffffffffffffffffffffff021916908373ffffffffffffffffffffffffffffffffffffffff16021790555050600a60008154809291906001019190505550600090505b8851811015620004e25760088054806001018281620001439190620004f1565b916000526020600020900160008b848151811015156200015f57fe5b90602001906020020151909190916101000a81548173ffffffffffffffffffffffffffffffffffffffff021916908373ffffffffffffffffffffffffffffffffffffffff160217905550506060604051908101604052808873ffffffffffffffffffffffffffffffffffffffff1681526020016001151581526020018983815181101515620001ea57fe5b90602001906020020151815250600160008b848151811015156200020a57fe5b9060200190602002015173ffffffffffffffffffffffffffffffffffffffff1673ffffffffffffffffffffffffffffffffffffffff16815260200190815260200160002060008201518160000160006101000a81548173ffffffffffffffffffffffffffffffffffffffff021916908373ffffffffffffffffffffffffffffffffffffffff16021790555060208201518160000160146101000a81548160ff02191690831515021790555060408201518160010155905050600260008a83815181101515620002d557fe5b9060200190602002015173ffffffffffffffffffffffffffffffffffffffff1673ffffffffffffffffffffffffffffffffffffffff16815260200190815260200160002080548060010182816200032d9190620004f1565b9160005260206000209001600089909190916101000a81548173ffffffffffffffffffffffffffffffffffffffff021916908373ffffffffffffffffffffffffffffffffffffffff16021790555050600660008873ffffffffffffffffffffffffffffffffffffffff1673ffffffffffffffffffffffffffffffffffffffff1681526020019081526020016000208054806001018281620003cf9190620004f1565b916000526020600020900160008b84815181101515620003eb57fe5b90602001906020020151909190916101000a81548173ffffffffffffffffffffffffffffffffffffffff021916908373ffffffffffffffffffffffffffffffffffffffff16021790555050600b54600160008b848151811015156200044c57fe5b9060200190602002015173ffffffffffffffffffffffffffffffffffffffff1673ffffffffffffffffffffffffffffffffffffffff16815260200190815260200160002060020160008973ffffffffffffffffffffffffffffffffffffffff1673ffffffffffffffffffffffffffffffffffffffff16815260200190815260200160002081905550808060010191505062000123565b50505050505050505062000548565b8154818355818115116200051b578183600052602060002091820191016200051a919062000520565b5b505050565b6200054591905b808211156200054157600081600090555060010162000527565b5090565b90565b61387480620005586000396000f300606060405260043610610196576000357c0100000000000000000000000000000000000000000000000000000000900463ffffffff168063012679511461019b578063025e7c27146101c957806302aa9be21461022c57806306a49fce1461026e5780630db02622146102d85780630e3e4fb81461030157806315febd68146103715780632a3640b1146103a85780632d15cc041461042a5780632f9c4bba146104b8578063302b687214610522578063326586521461058e5780633477ee2e14610640578063441a3e70146106a357806358e7525f146106cf5780635b860d271461071c5780635b9cd8cc146107695780636dd7d8ea1461082457806372e44a3814610852578063a9a981a31461089f578063a9ff959e146108c8578063ae6e43f5146108f1578063b642facd1461092a578063c45607df146109a3578063d09f1ab4146109f0578063d161c76714610a19578063d51b9e9314610a42578063d55b7dff14610a93578063ef18374a14610abc578063f2ee3c7d14610ae5578063f5c9512514610b1e578063f8ac9dd514610b4c575b600080fd5b6101c7600480803573ffffffffffffffffffffffffffffffffffffffff16906020019091905050610b75565b005b34156101d457600080fd5b6101ea60048080359060200190919050506111fc565b604051808273ffffffffffffffffffffffffffffffffffffffff1673ffffffffffffffffffffffffffffffffffffffff16815260200191505060405180910390f35b341561023757600080fd5b61026c600480803573ffffffffffffffffffffffffffffffffffffffff1690602001909190803590602001909190505061123b565b005b341561027957600080fd5b610281611796565b6040518080602001828103825283818151815260200191508051906020019060200280838360005b838110156102c45780820151818401526020810190506102a9565b505050509050019250505060405180910390f35b34156102e357600080fd5b6102eb61182a565b6040518082815260200191505060405180910390f35b341561030c57600080fd5b610357600480803573ffffffffffffffffffffffffffffffffffffffff1690602001909190803573ffffffffffffffffffffffffffffffffffffffff16906020019091905050611830565b604051808215151515815260200191505060405180910390f35b341561037c57600080fd5b610392600480803590602001909190505061185f565b6040518082815260200191505060405180910390f35b34156103b357600080fd5b6103e8600480803573ffffffffffffffffffffffffffffffffffffffff169060200190919080359060200190919050506118bb565b604051808273ffffffffffffffffffffffffffffffffffffffff1673ffffffffffffffffffffffffffffffffffffffff16815260200191505060405180910390f35b341561043557600080fd5b610461600480803573ffffffffffffffffffffffffffffffffffffffff16906020019091905050611909565b6040518080602001828103825283818151815260200191508051906020019060200280838360005b838110156104a4578082015181840152602081019050610489565b505050509050019250505060405180910390f35b34156104c357600080fd5b6104cb6119dc565b6040518080602001828103825283818151815260200191508051906020019060200280838360005b8381101561050e5780820151818401526020810190506104f3565b505050509050019250505060405180910390f35b341561052d57600080fd5b610578600480803573ffffffffffffffffffffffffffffffffffffffff1690602001909190803573ffffffffffffffffffffffffffffffffffffffff16906020019091905050611a79565b6040518082815260200191505060405180910390f35b341561059957600080fd5b6105c5600480803573ffffffffffffffffffffffffffffffffffffffff16906020019091905050611b03565b6040518080602001828103825283818151815260200191508051906020019080838360005b838110156106055780820151818401526020810190506105ea565b50505050905090810190601f1680156106325780820380516001836020036101000a031916815260200191505b509250505060405180910390f35b341561064b57600080fd5b6106616004808035906020019091905050611da2565b604051808273ffffffffffffffffffffffffffffffffffffffff1673ffffffffffffffffffffffffffffffffffffffff16815260200191505060405180910390f35b34156106ae57600080fd5b6106cd6004808035906020019091908035906020019091905050611de1565b005b34156106da57600080fd5b610706600480803573ffffffffffffffffffffffffffffffffffffffff1690602001909190505061208d565b6040518082815260200191505060405180910390f35b341561072757600080fd5b610753600480803573ffffffffffffffffffffffffffffffffffffffff169060200190919050506120d9565b6040518082815260200191505060405180910390f35b341561077457600080fd5b6107a9600480803573ffffffffffffffffffffffffffffffffffffffff169060200190919080359060200190919050506121a1565b6040518080602001828103825283818151815260200191508051906020019080838360005b838110156107e95780820151818401526020810190506107ce565b50505050905090810190601f1680156108165780820380516001836020036101000a031916815260200191505b509250505060405180910390f35b610850600480803573ffffffffffffffffffffffffffffffffffffffff1690602001909190505061226a565b005b341561085d57600080fd5b610889600480803573ffffffffffffffffffffffffffffffffffffffff16906020019091905050612653565b6040518082815260200191505060405180910390f35b34156108aa57600080fd5b6108b261266b565b6040518082815260200191505060405180910390f35b34156108d357600080fd5b6108db612671565b6040518082815260200191505060405180910390f35b34156108fc57600080fd5b610928600480803573ffffffffffffffffffffffffffffffffffffffff16906020019091905050612677565b005b341561093557600080fd5b610961600480803573ffffffffffffffffffffffffffffffffffffffff16906020019091905050612c36565b604051808273ffffffffffffffffffffffffffffffffffffffff1673ffffffffffffffffffffffffffffffffffffffff16815260200191505060405180910390f35b34156109ae57600080fd5b6109da600480803573ffffffffffffffffffffffffffffffffffffffff16906020019091905050612ca2565b6040518082815260200191505060405180910390f35b34156109fb57600080fd5b610a03612cee565b6040518082815260200191505060405180910390f35b3415610a2457600080fd5b610a2c612cf4565b6040518082815260200191505060405180910390f35b3415610a4d57600080fd5b610a79600480803573ffffffffffffffffffffffffffffffffffffffff16906020019091905050612cfa565b604051808215151515815260200191505060405180910390f35b3415610a9e57600080fd5b610aa6612d53565b6040518082815260200191505060405180910390f35b3415610ac757600080fd5b610acf612d59565b6040518082815260200191505060405180910390f35b3415610af057600080fd5b610b1c600480803573ffffffffffffffffffffffffffffffffffffffff16906020019091905050612d63565b005b3415610b2957600080fd5b610b4a600480803590602001908201803590602001919091929050506134f1565b005b3415610b5757600080fd5b610b5f6135f0565b6040518082815260200191505060405180910390f35b6000600b543410151515610b8857600080fd5b6000600360003373ffffffffffffffffffffffffffffffffffffffff1673ffffffffffffffffffffffffffffffffffffffff16815260200190815260200160002080549050141580610c1c57506000600660003373ffffffffffffffffffffffffffffffffffffffff1673ffffffffffffffffffffffffffffffffffffffff16815260200190815260200160002080549050115b1515610c2757600080fd5b81600160008273ffffffffffffffffffffffffffffffffffffffff1673ffffffffffffffffffffffffffffffffffffffff16815260200190815260200160002060000160149054906101000a900460ff16151515610c8457600080fd5b610cd934600160008673ffffffffffffffffffffffffffffffffffffffff1673ffffffffffffffffffffffffffffffffffffffff168152602001908152602001600020600101546135f690919063ffffffff16565b915060088054806001018281610cef919061362d565b9160005260206000209001600085909190916101000a81548173ffffffffffffffffffffffffffffffffffffffff021916908373ffffffffffffffffffffffffffffffffffffffff160217905550506060604051908101604052803373ffffffffffffffffffffffffffffffffffffffff16815260200160011515815260200183815250600160008573ffffffffffffffffffffffffffffffffffffffff1673ffffffffffffffffffffffffffffffffffffffff16815260200190815260200160002060008201518160000160006101000a81548173ffffffffffffffffffffffffffffffffffffffff021916908373ffffffffffffffffffffffffffffffffffffffff16021790555060208201518160000160146101000a81548160ff02191690831515021790555060408201518160010155905050610eb834600160008673ffffffffffffffffffffffffffffffffffffffff1673ffffffffffffffffffffffffffffffffffffffff16815260200190815260200160002060020160003373ffffffffffffffffffffffffffffffffffffffff1673ffffffffffffffffffffffffffffffffffffffff168152602001908152602001600020546135f690919063ffffffff16565b600160008573ffffffffffffffffffffffffffffffffffffffff1673ffffffffffffffffffffffffffffffffffffffff16815260200190815260200160002060020160003373ffffffffffffffffffffffffffffffffffffffff1673ffffffffffffffffffffffffffffffffffffffff16815260200190815260200160002081905550610f5160016009546135f690919063ffffffff16565b6009819055506000600660003373ffffffffffffffffffffffffffffffffffffffff1673ffffffffffffffffffffffffffffffffffffffff1681526020019081526020016000208054905014156110185760078054806001018281610fb6919061362d565b9160005260206000209001600033909190916101000a81548173ffffffffffffffffffffffffffffffffffffffff021916908373ffffffffffffffffffffffffffffffffffffffff16021790555050600a600081548092919060010191905055505b600660003373ffffffffffffffffffffffffffffffffffffffff1673ffffffffffffffffffffffffffffffffffffffff1681526020019081526020016000208054806001018281611069919061362d565b9160005260206000209001600085909190916101000a81548173ffffffffffffffffffffffffffffffffffffffff021916908373ffffffffffffffffffffffffffffffffffffffff16021790555050600260008473ffffffffffffffffffffffffffffffffffffffff1673ffffffffffffffffffffffffffffffffffffffff1681526020019081526020016000208054806001018281611109919061362d565b9160005260206000209001600033909190916101000a81548173ffffffffffffffffffffffffffffffffffffffff021916908373ffffffffffffffffffffffffffffffffffffffff160217905550507f7635f1d87b47fba9f2b09e56eb4be75cca030e0cb179c1602ac9261d39a8f5c1338434604051808473ffffffffffffffffffffffffffffffffffffffff1673ffffffffffffffffffffffffffffffffffffffff1681526020018373ffffffffffffffffffffffffffffffffffffffff1673ffffffffffffffffffffffffffffffffffffffff168152602001828152602001935050505060405180910390a1505050565b60078181548110151561120b57fe5b90600052602060002090016000915054906101000a900473ffffffffffffffffffffffffffffffffffffffff1681565b6000828280600160008473ffffffffffffffffffffffffffffffffffffffff1673ffffffffffffffffffffffffffffffffffffffff16815260200190815260200160002060020160003373ffffffffffffffffffffffffffffffffffffffff1673ffffffffffffffffffffffffffffffffffffffff16815260200190815260200160002054101515156112cd57600080fd5b3373ffffffffffffffffffffffffffffffffffffffff16600160008473ffffffffffffffffffffffffffffffffffffffff1673ffffffffffffffffffffffffffffffffffffffff16815260200190815260200160002060000160009054906101000a900473ffffffffffffffffffffffffffffffffffffffff1673ffffffffffffffffffffffffffffffffffffffff16141561140657600b546113f882600160008673ffffffffffffffffffffffffffffffffffffffff1673ffffffffffffffffffffffffffffffffffffffff16815260200190815260200160002060020160003373ffffffffffffffffffffffffffffffffffffffff1673ffffffffffffffffffffffffffffffffffffffff1681526020019081526020016000205461361490919063ffffffff16565b1015151561140557600080fd5b5b61145b84600160008873ffffffffffffffffffffffffffffffffffffffff1673ffffffffffffffffffffffffffffffffffffffff1681526020019081526020016000206001015461361490919063ffffffff16565b600160008773ffffffffffffffffffffffffffffffffffffffff1673ffffffffffffffffffffffffffffffffffffffff1681526020019081526020016000206001018190555061153384600160008873ffffffffffffffffffffffffffffffffffffffff1673ffffffffffffffffffffffffffffffffffffffff16815260200190815260200160002060020160003373ffffffffffffffffffffffffffffffffffffffff1673ffffffffffffffffffffffffffffffffffffffff1681526020019081526020016000205461361490919063ffffffff16565b600160008773ffffffffffffffffffffffffffffffffffffffff1673ffffffffffffffffffffffffffffffffffffffff16815260200190815260200160002060020160003373ffffffffffffffffffffffffffffffffffffffff1673ffffffffffffffffffffffffffffffffffffffff168152602001908152602001600020819055506115cb43600f546135f690919063ffffffff16565b9250611632846000803373ffffffffffffffffffffffffffffffffffffffff1673ffffffffffffffffffffffffffffffffffffffff1681526020019081526020016000206000016000868152602001908152602001600020546135f690919063ffffffff16565b6000803373ffffffffffffffffffffffffffffffffffffffff1673ffffffffffffffffffffffffffffffffffffffff1681526020019081526020016000206000016000858152602001908152602001600020819055506000803373ffffffffffffffffffffffffffffffffffffffff1673ffffffffffffffffffffffffffffffffffffffff16815260200190815260200160002060010180548060010182816116db9190613659565b9160005260206000209001600085909190915055507faa0e554f781c3c3b2be110a0557f260f11af9a8aa2c64bc1e7a31dbb21e32fa2338686604051808473ffffffffffffffffffffffffffffffffffffffff1673ffffffffffffffffffffffffffffffffffffffff1681526020018373ffffffffffffffffffffffffffffffffffffffff1673ffffffffffffffffffffffffffffffffffffffff168152602001828152602001935050505060405180910390a15050505050565b61179e613685565b600880548060200260200160405190810160405280929190818152602001828054801561182057602002820191906000526020600020905b8160009054906101000a900473ffffffffffffffffffffffffffffffffffffffff1673ffffffffffffffffffffffffffffffffffffffff16815260200190600101908083116117d6575b5050505050905090565b600a5481565b60056020528160005260406000206020528060005260406000206000915091509054906101000a900460ff1681565b60008060003373ffffffffffffffffffffffffffffffffffffffff1673ffffffffffffffffffffffffffffffffffffffff1681526020019081526020016000206000016000838152602001908152602001600020549050919050565b6006602052816000526040600020818154811015156118d657fe5b90600052602060002090016000915091509054906101000a900473ffffffffffffffffffffffffffffffffffffffff1681565b611911613685565b600260008373ffffffffffffffffffffffffffffffffffffffff1673ffffffffffffffffffffffffffffffffffffffff1681526020019081526020016000208054806020026020016040519081016040528092919081815260200182805480156119d057602002820191906000526020600020905b8160009054906101000a900473ffffffffffffffffffffffffffffffffffffffff1673ffffffffffffffffffffffffffffffffffffffff1681526020019060010190808311611986575b50505050509050919050565b6119e4613699565b6000803373ffffffffffffffffffffffffffffffffffffffff1673ffffffffffffffffffffffffffffffffffffffff168152602001908152602001600020600101805480602002602001604051908101604052809291908181526020018280548015611a6f57602002820191906000526020600020905b815481526020019060010190808311611a5b575b5050505050905090565b6000600160008473ffffffffffffffffffffffffffffffffffffffff1673ffffffffffffffffffffffffffffffffffffffff16815260200190815260200160002060020160008373ffffffffffffffffffffffffffffffffffffffff1673ffffffffffffffffffffffffffffffffffffffff16815260200190815260200160002054905092915050565b611b0b6136ad565b611b1482612cfa565b15611c655760036000611b2684612c36565b73ffffffffffffffffffffffffffffffffffffffff1673ffffffffffffffffffffffffffffffffffffffff168152602001908152602001600020600160036000611b6f86612c36565b73ffffffffffffffffffffffffffffffffffffffff1673ffffffffffffffffffffffffffffffffffffffff1681526020019081526020016000208054905003815481101515611bba57fe5b90600052602060002090018054600181600116156101000203166002900480601f016020809104026020016040519081016040528092919081815260200182805460018160011615610100020316600290048015611c595780601f10611c2e57610100808354040283529160200191611c59565b820191906000526020600020905b815481529060010190602001808311611c3c57829003601f168201915b50505050509050611d9d565b600360008373ffffffffffffffffffffffffffffffffffffffff1673ffffffffffffffffffffffffffffffffffffffff1681526020019081526020016000206001600360008573ffffffffffffffffffffffffffffffffffffffff1673ffffffffffffffffffffffffffffffffffffffff1681526020019081526020016000208054905003815481101515611cf657fe5b90600052602060002090018054600181600116156101000203166002900480601f016020809104026020016040519081016040528092919081815260200182805460018160011615610100020316600290048015611d955780601f10611d6a57610100808354040283529160200191611d95565b820191906000526020600020905b815481529060010190602001808311611d7857829003601f168201915b505050505090505b919050565b600881815481101515611db157fe5b90600052602060002090016000915054906101000a900473ffffffffffffffffffffffffffffffffffffffff1681565b60008282600082111515611df457600080fd5b814310151515611e0357600080fd5b60008060003373ffffffffffffffffffffffffffffffffffffffff1673ffffffffffffffffffffffffffffffffffffffff168152602001908152602001600020600001600084815260200190815260200160002054111515611e6457600080fd5b816000803373ffffffffffffffffffffffffffffffffffffffff1673ffffffffffffffffffffffffffffffffffffffff16815260200190815260200160002060010182815481101515611eb357fe5b906000526020600020900154141515611ecb57600080fd5b6000803373ffffffffffffffffffffffffffffffffffffffff1673ffffffffffffffffffffffffffffffffffffffff16815260200190815260200160002060000160008681526020019081526020016000205492506000803373ffffffffffffffffffffffffffffffffffffffff1673ffffffffffffffffffffffffffffffffffffffff1681526020019081526020016000206000016000868152602001908152602001600020600090556000803373ffffffffffffffffffffffffffffffffffffffff1673ffffffffffffffffffffffffffffffffffffffff16815260200190815260200160002060010184815481101515611fc457fe5b9060005260206000209001600090553373ffffffffffffffffffffffffffffffffffffffff166108fc849081150290604051600060405180830381858888f19350505050151561201357600080fd5b7ff279e6a1f5e320cca91135676d9cb6e44ca8a08c0b88342bcdb1144f6511b568338685604051808473ffffffffffffffffffffffffffffffffffffffff1673ffffffffffffffffffffffffffffffffffffffff168152602001838152602001828152602001935050505060405180910390a15050505050565b6000600160008373ffffffffffffffffffffffffffffffffffffffff1673ffffffffffffffffffffffffffffffffffffffff168152602001908152602001600020600101549050919050565b60008082600160008273ffffffffffffffffffffffffffffffffffffffff1673ffffffffffffffffffffffffffffffffffffffff16815260200190815260200160002060000160149054906101000a900460ff16151561213857600080fd5b61214184612c36565b915061214b612d59565b6064600460008573ffffffffffffffffffffffffffffffffffffffff1673ffffffffffffffffffffffffffffffffffffffff168152602001908152602001600020540281151561219757fe5b0492505050919050565b6003602052816000526040600020818154811015156121bc57fe5b9060005260206000209001600091509150508054600181600116156101000203166002900480601f0160208091040260200160405190810160405280929190818152602001828054600181600116156101000203166002900480156122625780601f1061223757610100808354040283529160200191612262565b820191906000526020600020905b81548152906001019060200180831161224557829003601f168201915b505050505081565b600c54341015151561227b57600080fd5b80600160008273ffffffffffffffffffffffffffffffffffffffff1673ffffffffffffffffffffffffffffffffffffffff16815260200190815260200160002060000160149054906101000a900460ff1615156122d757600080fd5b61232c34600160008573ffffffffffffffffffffffffffffffffffffffff1673ffffffffffffffffffffffffffffffffffffffff168152602001908152602001600020600101546135f690919063ffffffff16565b600160008473ffffffffffffffffffffffffffffffffffffffff1673ffffffffffffffffffffffffffffffffffffffff168152602001908152602001600020600101819055506000600160008473ffffffffffffffffffffffffffffffffffffffff1673ffffffffffffffffffffffffffffffffffffffff16815260200190815260200160002060020160003373ffffffffffffffffffffffffffffffffffffffff1673ffffffffffffffffffffffffffffffffffffffff16815260200190815260200160002054141561249b57600260008373ffffffffffffffffffffffffffffffffffffffff1673ffffffffffffffffffffffffffffffffffffffff168152602001908152602001600020805480600101828161244b919061362d565b9160005260206000209001600033909190916101000a81548173ffffffffffffffffffffffffffffffffffffffff021916908373ffffffffffffffffffffffffffffffffffffffff160217905550505b61252d34600160008573ffffffffffffffffffffffffffffffffffffffff1673ffffffffffffffffffffffffffffffffffffffff16815260200190815260200160002060020160003373ffffffffffffffffffffffffffffffffffffffff1673ffffffffffffffffffffffffffffffffffffffff168152602001908152602001600020546135f690919063ffffffff16565b600160008473ffffffffffffffffffffffffffffffffffffffff1673ffffffffffffffffffffffffffffffffffffffff16815260200190815260200160002060020160003373ffffffffffffffffffffffffffffffffffffffff1673ffffffffffffffffffffffffffffffffffffffff168152602001908152602001600020819055507f66a9138482c99e9baf08860110ef332cc0c23b4a199a53593d8db0fc8f96fbfc338334604051808473ffffffffffffffffffffffffffffffffffffffff1673ffffffffffffffffffffffffffffffffffffffff1681526020018373ffffffffffffffffffffffffffffffffffffffff1673ffffffffffffffffffffffffffffffffffffffff168152602001828152602001935050505060405180910390a15050565b60046020528060005260406000206000915090505481565b60095481565b600f5481565b6000806000833373ffffffffffffffffffffffffffffffffffffffff16600160008373ffffffffffffffffffffffffffffffffffffffff1673ffffffffffffffffffffffffffffffffffffffff16815260200190815260200160002060000160009054906101000a900473ffffffffffffffffffffffffffffffffffffffff1673ffffffffffffffffffffffffffffffffffffffff1614151561271957600080fd5b84600160008273ffffffffffffffffffffffffffffffffffffffff1673ffffffffffffffffffffffffffffffffffffffff16815260200190815260200160002060000160149054906101000a900460ff16151561277557600080fd5b6000600160008873ffffffffffffffffffffffffffffffffffffffff1673ffffffffffffffffffffffffffffffffffffffff16815260200190815260200160002060000160146101000a81548160ff0219169083151502179055506127e6600160095461361490919063ffffffff16565b600981905550600094505b6008805490508510156128bb578573ffffffffffffffffffffffffffffffffffffffff1660088681548110151561282457fe5b906000526020600020900160009054906101000a900473ffffffffffffffffffffffffffffffffffffffff1673ffffffffffffffffffffffffffffffffffffffff1614156128ae5760088581548110151561287b57fe5b906000526020600020900160006101000a81549073ffffffffffffffffffffffffffffffffffffffff02191690556128bb565b84806001019550506127f1565b600160008773ffffffffffffffffffffffffffffffffffffffff1673ffffffffffffffffffffffffffffffffffffffff16815260200190815260200160002060020160003373ffffffffffffffffffffffffffffffffffffffff1673ffffffffffffffffffffffffffffffffffffffff16815260200190815260200160002054935061299284600160008973ffffffffffffffffffffffffffffffffffffffff1673ffffffffffffffffffffffffffffffffffffffff1681526020019081526020016000206001015461361490919063ffffffff16565b600160008873ffffffffffffffffffffffffffffffffffffffff1673ffffffffffffffffffffffffffffffffffffffff168152602001908152602001600020600101819055506000600160008873ffffffffffffffffffffffffffffffffffffffff1673ffffffffffffffffffffffffffffffffffffffff16815260200190815260200160002060020160003373ffffffffffffffffffffffffffffffffffffffff1673ffffffffffffffffffffffffffffffffffffffff16815260200190815260200160002081905550612a7243600e546135f690919063ffffffff16565b9250612ad9846000803373ffffffffffffffffffffffffffffffffffffffff1673ffffffffffffffffffffffffffffffffffffffff1681526020019081526020016000206000016000868152602001908152602001600020546135f690919063ffffffff16565b6000803373ffffffffffffffffffffffffffffffffffffffff1673ffffffffffffffffffffffffffffffffffffffff1681526020019081526020016000206000016000858152602001908152602001600020819055506000803373ffffffffffffffffffffffffffffffffffffffff1673ffffffffffffffffffffffffffffffffffffffff1681526020019081526020016000206001018054806001018281612b829190613659565b9160005260206000209001600085909190915055507f4edf3e325d0063213a39f9085522994a1c44bea5f39e7d63ef61260a1e58c6d33387604051808373ffffffffffffffffffffffffffffffffffffffff1673ffffffffffffffffffffffffffffffffffffffff1681526020018273ffffffffffffffffffffffffffffffffffffffff1673ffffffffffffffffffffffffffffffffffffffff1681526020019250505060405180910390a1505050505050565b6000600160008373ffffffffffffffffffffffffffffffffffffffff1673ffffffffffffffffffffffffffffffffffffffff16815260200190815260200160002060000160009054906101000a900473ffffffffffffffffffffffffffffffffffffffff169050919050565b6000600360008373ffffffffffffffffffffffffffffffffffffffff1673ffffffffffffffffffffffffffffffffffffffff168152602001908152602001600020805490509050919050565b600d5481565b600e5481565b6000600160008373ffffffffffffffffffffffffffffffffffffffff1673ffffffffffffffffffffffffffffffffffffffff16815260200190815260200160002060000160149054906101000a900460ff169050919050565b600b5481565b6000600a54905090565b600080612d6e613685565b600080600033600160008273ffffffffffffffffffffffffffffffffffffffff1673ffffffffffffffffffffffffffffffffffffffff16815260200190815260200160002060000160149054906101000a900460ff161515612dcf57600080fd5b87600160008273ffffffffffffffffffffffffffffffffffffffff1673ffffffffffffffffffffffffffffffffffffffff16815260200190815260200160002060000160149054906101000a900460ff161515612e2b57600080fd5b612e3433612c36565b9750612e3f89612c36565b9650600560008973ffffffffffffffffffffffffffffffffffffffff1673ffffffffffffffffffffffffffffffffffffffff16815260200190815260200160002060008873ffffffffffffffffffffffffffffffffffffffff1673ffffffffffffffffffffffffffffffffffffffff16815260200190815260200160002060009054906101000a900460ff16151515612ed757600080fd5b6001600560008a73ffffffffffffffffffffffffffffffffffffffff1673ffffffffffffffffffffffffffffffffffffffff16815260200190815260200160002060008973ffffffffffffffffffffffffffffffffffffffff1673ffffffffffffffffffffffffffffffffffffffff16815260200190815260200160002060006101000a81548160ff0219169083151502179055506001600460008973ffffffffffffffffffffffffffffffffffffffff1673ffffffffffffffffffffffffffffffffffffffff16815260200190815260200160002060008282540192505081905550604b612fc4612d59565b6064600460008b73ffffffffffffffffffffffffffffffffffffffff1673ffffffffffffffffffffffffffffffffffffffff168152602001908152602001600020540281151561301057fe5b041015156134e65760016008805490500360405180591061302e5750595b9080825280602002602001820160405250955060009450600093505b600880549050841015613357578673ffffffffffffffffffffffffffffffffffffffff166130b160088681548110151561308057fe5b906000526020600020900160009054906101000a900473ffffffffffffffffffffffffffffffffffffffff16612c36565b73ffffffffffffffffffffffffffffffffffffffff16141561334a576130e3600160095461361490919063ffffffff16565b6009819055506008848154811015156130f857fe5b906000526020600020900160009054906101000a900473ffffffffffffffffffffffffffffffffffffffff16868680600101975081518110151561313857fe5b9060200190602002019073ffffffffffffffffffffffffffffffffffffffff16908173ffffffffffffffffffffffffffffffffffffffff168152505060088481548110151561318357fe5b906000526020600020900160006101000a81549073ffffffffffffffffffffffffffffffffffffffff0219169055600160006008868154811015156131c457fe5b906000526020600020900160009054906101000a900473ffffffffffffffffffffffffffffffffffffffff1673ffffffffffffffffffffffffffffffffffffffff1673ffffffffffffffffffffffffffffffffffffffff168152602001908152602001600020600080820160006101000a81549073ffffffffffffffffffffffffffffffffffffffff02191690556000820160146101000a81549060ff021916905560018201600090555050600360008873ffffffffffffffffffffffffffffffffffffffff1673ffffffffffffffffffffffffffffffffffffffff16815260200190815260200160002060006132bb91906136c1565b600660008873ffffffffffffffffffffffffffffffffffffffff1673ffffffffffffffffffffffffffffffffffffffff168152602001908152602001600020600061330691906136e2565b600460008873ffffffffffffffffffffffffffffffffffffffff1673ffffffffffffffffffffffffffffffffffffffff168152602001908152602001600020600090555b838060010194505061304a565b600092505b600780549050831015613439578673ffffffffffffffffffffffffffffffffffffffff1660078481548110151561338f57fe5b906000526020600020900160009054906101000a900473ffffffffffffffffffffffffffffffffffffffff1673ffffffffffffffffffffffffffffffffffffffff16141561342c576007838154811015156133e657fe5b906000526020600020900160006101000a81549073ffffffffffffffffffffffffffffffffffffffff0219169055600a6000815480929190600190039190505550613439565b828060010193505061335c565b7fe18d61a5bf4aa2ab40afc88aa9039d27ae17ff4ec1c65f5f414df6f02ce8b35e8787604051808373ffffffffffffffffffffffffffffffffffffffff1673ffffffffffffffffffffffffffffffffffffffff16815260200180602001828103825283818151815260200191508051906020019060200280838360005b838110156134d15780820151818401526020810190506134b6565b50505050905001935050505060405180910390a15b505050505050505050565b600360003373ffffffffffffffffffffffffffffffffffffffff1673ffffffffffffffffffffffffffffffffffffffff16815260200190815260200160002080548060010182816135429190613703565b91600052602060002090016000848490919290919250919061356592919061372f565b50507f949360d814b28a3b393a68909efe1fee120ee09cac30f360a0f80ab5415a611a338383604051808473ffffffffffffffffffffffffffffffffffffffff1673ffffffffffffffffffffffffffffffffffffffff168152602001806020018281038252848482818152602001925080828437820191505094505050505060405180910390a15050565b600c5481565b600080828401905083811015151561360a57fe5b8091505092915050565b600082821115151561362257fe5b818303905092915050565b8154818355818115116136545781836000526020600020918201910161365391906137af565b5b505050565b8154818355818115116136805781836000526020600020918201910161367f91906137af565b5b505050565b602060405190810160405280600081525090565b602060405190810160405280600081525090565b602060405190810160405280600081525090565b50805460008255906000526020600020908101906136df91906137d4565b50565b508054600082559060005260206000209081019061370091906137af565b50565b81548183558181151161372a5781836000526020600020918201910161372991906137d4565b5b505050565b828054600181600116156101000203166002900490600052602060002090601f016020900481019282601f1061377057803560ff191683800117855561379e565b8280016001018555821561379e579182015b8281111561379d578235825591602001919060010190613782565b5b5090506137ab91906137af565b5090565b6137d191905b808211156137cd5760008160009055506001016137b5565b5090565b90565b6137fd91905b808211156137f957600081816137f09190613800565b506001016137da565b5090565b90565b50805460018160011615610100020316600290046000825580601f106138265750613845565b601f01602090049060005260206000209081019061384491906137af565b5b505600a165627a7a72305820d3a0de96d0041911276ca2d56c3ee7d85bc888c0434655f3ba8eb072d6097bd00029",
  "source": "\npragma solidity ^0.4.21;\n\nimport \"./libs/SafeMath.sol\";\n\n\ncontract XDCValidator {\n    using SafeMath for uint256;\n\n    event Vote(address _voter, address _candidate, uint256 _cap);\n    event Unvote(address _voter, address _candidate, uint256 _cap);\n    event Propose(address _owner, address _candidate, uint256 _cap);\n    event Resign(address _owner, address _candidate);\n    event Withdraw(address _owner, uint256 _blockNumber, uint256 _cap);\n    event UploadedKYC(address _owner,string kycHash);\n    event InvalidatedNode(address _masternodeOwner, address[] _masternodes);\n\n    struct ValidatorState {\n        address owner;\n        bool isCandidate;\n        uint256 cap;\n        mapping(address => uint256) voters;\n    }\n\n    struct WithdrawState {\n      mapping(uint256 => uint256) caps;\n      uint256[] blockNumbers;\n    }\n\n    mapping(address => WithdrawState) withdrawsState;\n\n    mapping(address => ValidatorState) validatorsState;\n    mapping(address => address[]) voters;\n\n    // Mapping structures added for KYC feature.\n    mapping(address => string[]) public KYCString;\n    mapping(address => uint) public invalidKYCCount;\n    mapping(address => mapping(address => bool)) public hasVotedInvalid;\n    mapping(address => address[]) public ownerToCandidate;\n    address[] public owners;\n\n    address[] public candidates;\n\n    uint256 public candidateCount = 0;\n    uint256 public ownerCount =0;\n    uint256 public minCandidateCap;\n    uint256 public minVoterCap;\n    uint256 public maxValidatorNumber;\n    uint256 public candidateWithdrawDelay;\n    uint256 public voterWithdrawDelay;\n\n    modifier onlyValidCandidateCap {\n        // anyone can deposit X XDC to become a candidate\n        require(msg.value >= minCandidateCap);\n        _;\n    }\n\n    modifier onlyValidVoterCap {\n\n        require(msg.value >= minVoterCap);\n        _;\n    }\n\n    modifier onlyKYCWhitelisted {\n       require(KYCString[msg.sender].length!=0 || ownerToCandidate[msg.sender].length>0);\n       _;\n    }\n\n    modifier onlyOwner(address _candidate) {\n        require(validatorsState[_candidate].owner == msg.sender);\n        _;\n    }\n\n    modifier onlyCandidate(address _candidate) {\n        require(validatorsState[_candidate].isCandidate);\n        _;\n    }\n\n    modifier onlyValidCandidate (address _candidate) {\n        require(validatorsState[_candidate].isCandidate);\n        _;\n    }\n\n    modifier onlyNotCandidate (address _candidate) {\n        require(!validatorsState[_candidate].isCandidate);\n        _;\n    }\n\n    modifier onlyValidVote (address _candidate, uint256 _cap) {\n        require(validatorsState[_candidate].voters[msg.sender] >= _cap);\n        if (validatorsState[_candidate].owner == msg.sender) {\n            require(validatorsState[_candidate].voters[msg.sender].sub(_cap) >= minCandidateCap);\n        }\n        _;\n    }\n\n    modifier onlyValidWithdraw (uint256 _blockNumber, uint _index) {\n        require(_blockNumber > 0);\n        require(block.number >= _blockNumber);\n        require(withdrawsState[msg.sender].caps[_blockNumber] > 0);\n        require(withdrawsState[msg.sender].blockNumbers[_index] == _blockNumber);\n        _;\n    }\n\n    function XDCValidator (\n        address[] _candidates,\n        uint256[] _caps,\n        address _firstOwner,\n        uint256 _minCandidateCap,\n        uint256 _minVoterCap,\n        uint256 _maxValidatorNumber,\n        uint256 _candidateWithdrawDelay,\n        uint256 _voterWithdrawDelay\n    ) public {\n        minCandidateCap = _minCandidateCap;\n        minVoterCap = _minVoterCap;\n        maxValidatorNumber = _maxValidatorNumber;\n        candidateWithdrawDelay = _candidateWithdrawDelay;\n        voterWithdrawDelay = _voterWithdrawDelay;\n        candidateCount = _candidates.length;\n        owners.push(_firstOwner);\n        ownerCount++;\n        for (uint256 i = 0; i < _candidates.length; i++) {\n            candidates.push(_candidates[i]);\n            validatorsState[_candidates[i]] = ValidatorState({\n                owner: _firstOwner,\n                isCandidate: true,\n                cap: _caps[i]\n            });\n            voters[_candidates[i]].push(_firstOwner);\n            ownerToCandidate[_firstOwner].push(_candidates[i]);\n            validatorsState[_candidates[i]].voters[_firstOwner] = minCandidateCap;\n        }\n    }\n\n\n    // uploadKYC : anyone can upload a KYC; its not equivalent to becoming an owner.\n    function uploadKYC(string kychash) external {\n        KYCString[msg.sender].push(kychash);\n        emit UploadedKYC(msg.sender,kychash);\n    }\n\n    // propose : any non-candidate who has uploaded its KYC can become an owner by proposing a candidate.\n    function propose(address _candidate) external payable onlyValidCandidateCap onlyKYCWhitelisted onlyNotCandidate(_candidate) {\n        uint256 cap = validatorsState[_candidate].cap.add(msg.value);\n        candidates.push(_candidate);\n        validatorsState[_candidate] = ValidatorState({\n            owner: msg.sender,\n            isCandidate: true,\n            cap: cap\n        });\n        validatorsState[_candidate].voters[msg.sender] = validatorsState[_candidate].voters[msg.sender].add(msg.value);\n        candidateCount = candidateCount.add(1);\n        if (ownerToCandidate[msg.sender].length ==0){\n            owners.push(msg.sender);\n            ownerCount++;\n        }\n        ownerToCandidate[msg.sender].push(_candidate);\n        voters[_candidate].push(msg.sender);\n        emit Propose(msg.sender, _candidate, msg.value);\n    }\n\n    function vote(address _candidate) external payable onlyValidVoterCap onlyValidCandidate(_candidate) {\n        validatorsState[_candidate].cap = validatorsState[_candidate].cap.add(msg.value);\n        if (validatorsState[_candidate].voters[msg.sender] == 0) {\n            voters[_candidate].push(msg.sender);\n        }\n        validatorsState[_candidate].voters[msg.sender] = validatorsState[_candidate].voters[msg.sender].add(msg.value);\n        emit Vote(msg.sender, _candidate, msg.value);\n    }\n\n    function getCandidates() public view returns(address[]) {\n        return candidates;\n    }\n\n    function getCandidateCap(address _candidate) public view returns(uint256) {\n        return validatorsState[_candidate].cap;\n    }\n\n    function getCandidateOwner(address _candidate) public view returns(address) {\n        return validatorsState[_candidate].owner;\n    }\n\n    function getVoterCap(address _candidate, address _voter) public view returns(uint256) {\n        return validatorsState[_candidate].voters[_voter];\n    }\n\n    function getVoters(address _candidate) public view returns(address[]) {\n        return voters[_candidate];\n    }\n\n    function isCandidate(address _candidate) public view returns(bool) {\n        return validatorsState[_candidate].isCandidate;\n    }\n\n    function getWithdrawBlockNumbers() public view returns(uint256[]) {\n        return withdrawsState[msg.sender].blockNumbers;\n    }\n\n    function getWithdrawCap(uint256 _blockNumber) public view returns(uint256) {\n        return withdrawsState[msg.sender].caps[_blockNumber];\n    }\n\n    function unvote(address _candidate, uint256 _cap) public onlyValidVote(_candidate, _cap) {\n        validatorsState[_candidate].cap = validatorsState[_candidate].cap.sub(_cap);\n        validatorsState[_candidate].voters[msg.sender] = validatorsState[_candidate].voters[msg.sender].sub(_cap);\n\n        // refund after delay X blocks\n        uint256 withdrawBlockNumber = voterWithdrawDelay.add(block.number);\n        withdrawsState[msg.sender].caps[withdrawBlockNumber] = withdrawsState[msg.sender].caps[withdrawBlockNumber].add(_cap);\n        withdrawsState[msg.sender].blockNumbers.push(withdrawBlockNumber);\n\n        emit Unvote(msg.sender, _candidate, _cap);\n    }\n\n    function resign(address _candidate) public onlyOwner(_candidate) onlyCandidate(_candidate) {\n        validatorsState[_candidate].isCandidate = false;\n        candidateCount = candidateCount.sub(1);\n        for (uint256 i = 0; i < candidates.length; i++) {\n            if (candidates[i] == _candidate) {\n                delete candidates[i];\n                break;\n            }\n        }\n        uint256 cap = validatorsState[_candidate].voters[msg.sender];\n        validatorsState[_candidate].cap = validatorsState[_candidate].cap.sub(cap);\n        validatorsState[_candidate].voters[msg.sender] = 0;\n        // refunding after resigning X blocks\n        uint256 withdrawBlockNumber = candidateWithdrawDelay.add(block.number);\n        withdrawsState[msg.sender].caps[withdrawBlockNumber] = withdrawsState[msg.sender].caps[withdrawBlockNumber].add(cap);\n        withdrawsState[msg.sender].blockNumbers.push(withdrawBlockNumber);\n        emit Resign(msg.sender, _candidate);\n    }\n\n    // voteInvalidKYC : any candidate can vote for invalid KYC i.e. a particular candidate's owner has uploaded a bad KYC.\n    // On securing 75% votes against an owner ( not candidate ), owner & all its candidates will lose their funds.\n    function voteInvalidKYC(address _invalidCandidate) onlyValidCandidate(msg.sender) onlyValidCandidate(_invalidCandidate) public {\n        address candidateOwner = getCandidateOwner(msg.sender);\n        address _invalidMasternode = getCandidateOwner(_invalidCandidate);\n        require(!hasVotedInvalid[candidateOwner][_invalidMasternode]);\n        hasVotedInvalid[candidateOwner][_invalidMasternode] = true;\n        invalidKYCCount[_invalidMasternode] += 1;\n        if( invalidKYCCount[_invalidMasternode]*100/getOwnerCount() >= 75 ){\n            // 75% owners say that the KYC is invalid\n            address[] memory allMasternodes = new address[](candidates.length-1) ;\n            uint count=0;\n            for (uint i=0;i<candidates.length;i++){\n                if (getCandidateOwner(candidates[i])==_invalidMasternode){\n                    // logic to remove cap.\n                    candidateCount = candidateCount.sub(1);\n                    allMasternodes[count++] = candidates[i];\n                    delete candidates[i];\n                    delete validatorsState[candidates[i]];\n                    delete KYCString[_invalidMasternode];\n                    delete ownerToCandidate[_invalidMasternode];\n                    delete invalidKYCCount[_invalidMasternode];\n                }\n            }\n            for(uint k=0;k<owners.length;k++){\n                        if (owners[k]==_invalidMasternode){\n                            delete owners[k];\n                            ownerCount--;\n                            break;\n                } \n            }\n            emit InvalidatedNode(_invalidMasternode,allMasternodes);\n        }\n    }\n\n    // invalidPercent : get votes against an owner in percentage.\n    function invalidPercent(address _invalidCandidate) onlyValidCandidate(_invalidCandidate) view public returns(uint){\n        address _invalidMasternode = getCandidateOwner(_invalidCandidate);\n        return (invalidKYCCount[_invalidMasternode]*100/getOwnerCount());\n    }\n\n\n    // getOwnerCount : get count of total owners; accounts who own atleast one masternode.\n    function getOwnerCount() view public returns (uint){\n        return ownerCount;\n    }\n    \n    // getKYC : get KYC uploaded of the owner of the given masternode or the owner themselves\n    function getLatestKYC(address _address) view public  returns (string) {\n        if(isCandidate(_address)){\n        return KYCString[getCandidateOwner(_address)][KYCString[getCandidateOwner(_address)].length-1];\n        }\n        else{\n            return KYCString[_address][KYCString[_address].length-1];\n        }\n    }\n    \n    function getHashCount(address _address) view public returns(uint){\n        return KYCString[_address].length;\n    }\n\n    function withdraw(uint256 _blockNumber, uint _index) public onlyValidWithdraw(_blockNumber, _index) {\n        uint256 cap = withdrawsState[msg.sender].caps[_blockNumber];\n        delete withdrawsState[msg.sender].caps[_blockNumber];\n        delete withdrawsState[msg.sender].blockNumbers[_index];\n        msg.sender.transfer(cap);\n        emit Withdraw(msg.sender, _blockNumber, cap);\n    }\n}\n",
  "sourcePath": "/Users/sihengpan/Documents/XinFin/Experiments/contracts/XDCValidator.sol",
  "compiler": {
    "name": "solc",
    "version": "0.4.21+commit.dfe3193c.Emscripten.clang"
  },
  "schemaVersion": "3.4.1",
  "updatedAt": "2022-09-12T03:18:42.010Z",
  "devdoc": {
    "methods": {}
  },
  "userdoc": {
    "methods": {}
  }
}